{
  "transactions": [
    {
      "hash": "0x08567360f2c82e6ef5930bbacebbd1c7333a2a59f5079aa64a0eca37d56ab1d3",
      "transactionType": "CALL",
      "contractName": null,
      "contractAddress": "0x70e769d1729b1482ffa89bb2199a99e12370ed1f",
      "function": "mint(address,uint256)",
      "arguments": [
        "0x1804c8AB1F12E6bbf3894d4083f33e07309d1f38",
        "1000000000000000000000"
      ],
      "transaction": {
        "from": "0x01bf49d75f2b73a2fdefa7664aef22c86c5be3df",
        "to": "0x70e769d1729b1482ffa89bb2199a99e12370ed1f",
        "gas": "0x1356c",
        "value": "0x0",
        "input": "0x40c10f190000000000000000000000001804c8ab1f12e6bbf3894d4083f33e07309d1f3800000000000000000000000000000000000000000000003635c9adc5dea00000",
        "nonce": "0x14",
        "chainId": "0x14a34"
      },
      "additionalContracts": [],
      "isFixedGasLimit": false
    }
  ],
  "receipts": [
    {
      "status": "0x1",
      "cumulativeGasUsed": "0x88ff8a",
      "logs": [
        {
          "address": "0x70e769d1729b1482ffa89bb2199a99e12370ed1f",
          "topics": [
            "0xddf252ad1be2c89b69c2b068fc378daa952ba7f163c4a11628f55a4df523b3ef",
            "0x0000000000000000000000000000000000000000000000000000000000000000",
            "0x0000000000000000000000001804c8ab1f12e6bbf3894d4083f33e07309d1f38"
          ],
          "data": "0x00000000000000000000000000000000000000000000003635c9adc5dea00000",
          "blockHash": "0x32c7a52bc66def1960d2d3772433eb2e37772bd5f31d829ae99a40f35a7dcdf5",
          "blockNumber": "0x1e64578",
          "transactionHash": "0x08567360f2c82e6ef5930bbacebbd1c7333a2a59f5079aa64a0eca37d56ab1d3",
          "transactionIndex": "0x8",
          "logIndex": "0xfe",
          "removed": false
        }
      ],
      "logsBloom": "0x00000000000000000000000000000000000000000000000000000000000000000000000000000000000000000000000000000000000000000000000000000000000000000000000000000008000000000000000000000000000000000000000000000000020000000001000000000800000000000000000000000010020008000000000000000000000004000000000000000000000000000000000000000000000000000000000000000000000000000000000000000000000000000000000000000002000004000000000000000000000000000000000000000000000020000000000000000000000000000000000000000000002000000000000000000000",
      "type": "0x2",
      "transactionHash": "0x08567360f2c82e6ef5930bbacebbd1c7333a2a59f5079aa64a0eca37d56ab1d3",
      "transactionIndex": "0x8",
      "blockHash": "0x32c7a52bc66def1960d2d3772433eb2e37772bd5f31d829ae99a40f35a7dcdf5",
      "blockNumber": "0x1e64578",
      "gasUsed": "0xd393",
      "effectiveGasPrice": "0xecd4b",
      "from": "0x01bf49d75f2b73a2fdefa7664aef22c86c5be3df",
      "to": "0x70e769d1729b1482ffa89bb2199a99e12370ed1f",
      "contractAddress": null,
      "l1BaseFeeScalar": "0x44d",
      "l1BlobBaseFee": "0x1",
      "l1BlobBaseFeeScalar": "0xa118b",
      "l1Fee": "0x63",
      "l1GasPrice": "0x13",
      "l1GasUsed": "0x640"
    }
  ],
  "libraries": [],
  "pending": [],
  "returns": {},
  "timestamp": 1759504852484,
  "chain": 84532,
  "commit": null
}