{
  "transactions": [
    {
      "hash": "0xcfbf828de485858b3b8213a09c92b75685baf4a253da98308c861f8a8639f34d",
      "transactionType": "CALL",
      "contractName": null,
      "contractAddress": "0x3a3c4c80df9b5a6b9e3de3a771c99f51ca992b21",
      "function": "mint(address,uint256)",
      "arguments": [
        "0x01BF49D75f2b73A2FDEFa7664AEF22C86c5Be3df",
        "1000000000000000000000"
      ],
      "transaction": {
        "from": "0x01bf49d75f2b73a2fdefa7664aef22c86c5be3df",
        "to": "0x3a3c4c80df9b5a6b9e3de3a771c99f51ca992b21",
        "gas": "0xc7f8",
        "value": "0x0",
        "input": "0x40c10f1900000000000000000000000001bf49d75f2b73a2fdefa7664aef22c86c5be3df00000000000000000000000000000000000000000000003635c9adc5dea00000",
        "nonce": "0x17",
        "chainId": "0x14a34"
      },
      "additionalContracts": [],
      "isFixedGasLimit": false
    }
  ],
  "receipts": [
    {
      "status": "0x1",
      "cumulativeGasUsed": "0xc4cec",
      "logs": [
        {
          "address": "0x3a3c4c80df9b5a6b9e3de3a771c99f51ca992b21",
          "topics": [
            "0xddf252ad1be2c89b69c2b068fc378daa952ba7f163c4a11628f55a4df523b3ef",
            "0x0000000000000000000000000000000000000000000000000000000000000000",
            "0x00000000000000000000000001bf49d75f2b73a2fdefa7664aef22c86c5be3df"
          ],
          "data": "0x00000000000000000000000000000000000000000000003635c9adc5dea00000",
          "blockHash": "0x3d8992a4377396a64cf5c7532ac919467ce5e71ec4c86b595a927cdf0515b2bf",
          "blockNumber": "0x1e64768",
          "transactionHash": "0xcfbf828de485858b3b8213a09c92b75685baf4a253da98308c861f8a8639f34d",
          "transactionIndex": "0x4",
          "logIndex": "0x8",
          "removed": false
        }
      ],
      "logsBloom": "0x00000000000000000000000000000000000000000000000000000000000000000000000000000000000000000000002080000000000000000000000000000000000000000000000000000008000000000000000000000000000000200000000000000000020000000000000000000800000000000000000000000010000000000000000000000000000000000000000000000000000000000000000000000000000000000000000000000000000000000000000000100000000000000000000000000002000000000000000000000000000000040000000000000000000020000000000000000000000000000000000000000000000040000000000000000000",
      "type": "0x2",
      "transactionHash": "0xcfbf828de485858b3b8213a09c92b75685baf4a253da98308c861f8a8639f34d",
      "transactionIndex": "0x4",
      "blockHash": "0x3d8992a4377396a64cf5c7532ac919467ce5e71ec4c86b595a927cdf0515b2bf",
      "blockNumber": "0x1e64768",
      "gasUsed": "0x90c7",
      "effectiveGasPrice": "0xf4283",
      "from": "0x01bf49d75f2b73a2fdefa7664aef22c86c5be3df",
      "to": "0x3a3c4c80df9b5a6b9e3de3a771c99f51ca992b21",
      "contractAddress": null,
      "l1BaseFeeScalar": "0x44d",
      "l1BlobBaseFee": "0x1",
      "l1BlobBaseFeeScalar": "0xa118b",
      "l1Fee": "0x5f",
      "l1GasPrice": "0x11",
      "l1GasUsed": "0x640"
    }
  ],
  "libraries": [],
  "pending": [],
  "returns": {},
  "timestamp": 1759505843961,
  "chain": 84532,
  "commit": null
}